:03000000020E32BB
:0C0E3200787FE4F6D8FD75812C020B5C83
:030E3E0025640028
:100B5C00D294D295D296C290D291D292E4F5A0536F
:100B6C0080F0120DD1D2B47589157FE87E03120D79
:100B7C00B0E4F58AF58C758B80758D3DD28CD28E58
:100B8C00308FFDC28CC28EC28FAF8CEFFEAD8A7CD3
:100B9C0000E42DF52AEC3EF529FEAF2A7D28120C37
:100BAC00B58E2B8F2CC3E52C9408E52B6480948791
:100BBC004013D3E52C9498E52B648094885006C29E
:100BCC0094D295D296C3E52C94FCE52B6480948842
:100BDC004013D3E52C948CE52B6480948A5006D278
:100BEC0094C295D296C3E52C94F0E52B6480948A3C
:100BFC004013D3E52C94E4E52B6480948C5006D2FE
:100C0C0094D295C296C3E52C9410E52B6480948EF7
:100C1C004013D3E52C94CCE52B648094905006C201
:100C2C0090D291D292C3E52C9430E52B64809491B0
:100C3C004013D3E52C94C0E52B648094925006D2DB
:100C4C0090C291D292C3E52C9424E52B64809493AA
:100C5C004013D3E52C9418E52B648094955006D260
:100C6C0090D291C292750BFF750C0E750D3E852BB3
:100C7C000E852C0F7B007A00792212085C7F801283
:100C8C000E067B007A0079227D07120D3C020B7652
:100DD1007F647E00120D977F38120E067F0E120E71
:0B0DE100067F01120E067F80020E0646
:100E06008F08120DEC8508A0C280120D8FC2827F5A
:060E1600057E00020D97AD
:100E1C008F0C120DEC850CA0D280120D8FC2827F2C
:060E2C00057E00020D9797
:100D3C008B088A09890A8D0BE50BD39400401CABF8
:100D4C0008AA09A90A120C9CFF120E1C7401250A90
:0C0D5C00F50AE43509F509150B80DD22CD
:100DEC0075A0FFC280D281C282120D93D28230A72D
:0A0DFC0006C282D28280F7C2822272
:080D8F00C281D2827F057E00C3
:100D9700D3EF9400EE64809480400DE4FD0DBD0513
:080DA700FCEF1F70EB1E80E859
:010DAF002221
:100DB000D3EF9400EE648094804015E4FCFD0DBDFB
:100DC00000010CBC01F8BD7EF5EF1F70E31E80E052
:010DD0002200
:100C9C00BB010689828A83E0225002E722BBFE0256
:090CAC00E32289828A83E4932289
:100CB500EF8DF0A4A8F0CF8CF0A428CE8DF0A42E53
:020CC500FE220D
:10080000E517240BF8E60517227808300702780B65
:10081000E475F001120D06020C9C2000EB7F2ED235
:10082000008018EF540F2490D43440D4FF30040BD0
:10083000EF24BFB41A0050032461FFE518600215CD
:1008400018051BE51B7002051A30070D7808E475C2
:10085000F001120D06EF020CF4020D687403D207CA
:100860008003E4C207F5178B088A09890AE4F518A2
:10087000F51AF51BE51860077F2012083B80F57517
:1008800019FFC201C200C202C203C205C206C208E9
:10089000120809FF700D3007057F0012084CAF1BCE
:1008A000AE1A22B4255FC2D5C204120809FF24D0B3
:1008B000B40A00501A75F00A781830D50508B6FF4A
:1008C0000106C6A426F620D5047002D20380D924DE
:1008D000CFB41A00EF5004C2E5D204020A4CD20190
:1008E00080C6D20080C0D20280BCD2D580BAD205E8
:1008F00080B47F2012083B2002077401B518004025
:10090000F1120800FF12083B020874D208D20680D8
:1009100095120800FB120800FA120800F94A4B7001
:1009200006791D7A0B7BFF20022EE518602A7E00D7
:100930008E82758300120CC760060EEE651970F08A
:10094000C2D5EBC0E0EAC0E0E9C0E0EE120A93D005
:10095000E0F9D0E0FAD0E0FB120C9CFF60AAEBC0FB
:10096000E0EAC0E0E9C0E012083BD0E02401F9D0A1
:10097000E03400FAD0E0FBE5190460DCD519D98039
:10098000877BFF7A0A798FD202809C791080027966
:1009900008C206C2088008D2D5790A8004790AC242
:1009A000D5E519047002F519E4FAFDFEFF120800FE
:1009B000FC7B08200113120800FD7B1030000A1296
:1009C0000800FE120800FF7B20EC3382D592D55040
:1009D00013C3E43000069FFFE49EFEE42001039D64
:1009E000FDE49CFCE4CBF8C201EC700CCFCECDCC86
:1009F000E824F8F870F38017C3EF33FFEE33FEED11
:100A000033FDEC33FCEB33FB994002FB0FD8E9EBF1
:100A1000300105F8D0E0C448B201C0E00AEC4D4E08
:100A20004F78207B0070C2EAB5190040BCC0E012CC
:100A30000A95D0F0D0E0200104C4C0E0C4B201C0E7
:100A4000F0120824D0F0D5F0EB020874120D16094C
:100A50001153098B5808E24C08DE42098F4F099761
:0F0A60004409974908F743099D550981460981C3
:100A6F00450981470B3D5008E62D08EA2E090D2B4D
:100A7F0008EE23090B200B262A08A64800000905BB
:100A8F003F3F3F00790AA2D5200314300509B91062
:100A9F00020404B9080104A2D52006025001042063
:100AAF0002689202B518005034C0E07F203003195D
:100ABF007F30A20272067205500F120AECC202C2F8
:100ACF0006C205C2087F30800F300503E9C0E0126F
:100ADF00083B300503D0E0F9D0E0B518CC3005174E
:100AEF007F30B9100C12083B7F583004077F788095
:100AFF0003B9080312083B3002057F2D02083B7F24
:100B0F00202008F87F2B2006F322920280CF286E38
:100B1F00756C6C2900D2011208003001F8C20178FF
:100B2F001830D50108F60208A62D5043495812086F
:100B3F00002403B405004001E4900B389312082CF5
:0D0B4F00743A12082CD20375180402098BA9
:100CC700BB010CE58229F582E5833AF583E02250E2
:100CD70006E92582F8E622BBFE06E92582F8E2222C
:0D0CE700E58229F582E5833AF583E4932246
:100CF400BB010689828A83F0225002F722BBFE01DF
:020D0400F322D8
:100D0600FAE6FB0808E6F925F0F618E6CA3AF622EE
:100D1600D083D082F8E4937012740193700DA3A36C
:100D260093F8740193F5828883E473740293686080
:060D3600EFA3A3A380DF80
:100D6800EFB40A07740D120D73740A309811A8991C
:100D7800B8130CC2983098FDA899C298B811F630EB
:070D880099FDC299F59922C3
:00000001FF
